:100000000C9468010C9490010C9490010C94900154
:100010000C9490010C9490010C9490010C9490011C
:100020000C9490010C9490010C94870E0C94160D76
:100030000C9490010C9490010C9490010C949001FC
:100040000C9490010C9490010C9490010C949001EC
:100050000C9490010C9490010C9490010C94470521
:100060000C9490010C9437090C9469090C9490013C
:100070000C9490010C9490010C9490010C949001BC
:100080000C9490010C9490010C9490010C949001AC
:100090000C9490010C9490010C9490010C9490019C
:1000A0000C9490010C9490010C94900175067806C4
:1000B00067066B0671069906990699067C06800606
:1000C00084068A068E06990694060000000200093E
:1000D0000F0000030401000C00000408020110409E
:1000E000804010204080408008040201010210205E
:1000F00040801080102040400404040404030405E0
:1001000002020202040302020202060606060606B4
:10011000040402020204000000002300260029005B
:100120002C002F0000000000250028002B002E00CE
:10013000310000000000240027002A002D003000BC
:10014000080B000202020100090400000102020083
:100150000005240010010524010101042402060504
:100160002406000107058103100040090401000274
:100170000A00000007050202400000070583024054
:10018000000012010002EF0201408D0E01AB0001E0
:100190000102030112010002000000408D0E01ABBC
:1001A0000001010203014D6564696154656B204CD7
:1001B000616273004C696E6B497420536D61727497
:1001C00020373638382044756F0004030904004096
:1001D0007A10F35A00A0724E18090010A5D4E80056
:1001E00000E87648170000E40B54020000CA9A3B6E
:1001F000000000E1F50500008096980000004042F4
:100200000F000000A0860100000010270000000081
:10021000E803000000006400000000000A00000085
:1002200000000100000000002C76D888DC674F0831
:1002300023DFC1DFAE59E1B1B796E5E3E453C63A37
:10024000E651997696E8E6C28426EB898C9B62EDAE
:10025000407C6FFCEFBC9C9F40F2BAA56FA5F49068
:10026000055A2AF75C936B6CF9676DC11BFCE0E4DF
:100270000D47FEF520E6B500D0ED902E0300943535
:1002800077050080841E080000204E0A000000C888
:100290000C333333330F986E12831141EF8D2114D9
:1002A000893BE65516CFFEE6DB18D1844B381BF7A9
:1002B0007C1D901DA4BBE424203284725E22810048
:1002C000C9F124ECA1E53D275702FC0799097C02FE
:1002D00011241FBECFEFDAE0DEBFCDBF11E0A0E0FA
:1002E000B1E0E8E7FFE202C005900D92A438B10743
:1002F000D9F722E0A4E8B1E001C01D92A63CB20704
:10030000E1F711E0C7E6D1E004C02197FE010E94A9
:10031000DC12C436D107C9F70E94A5100C94AF17A0
:100320000C94000026E040E051EE60E070E08EE0CA
:1003300092E00E94D70840E855E260E070E08DEB63
:1003400091E00E94F60782EA91E00C9442038F92BA
:100350009F92AF92BF92CF92DF92EF92FF92CF9394
:10036000DF93CDB7DEB768970FB6F894DEBF0FBE48
:10037000CDBF60E082EA91E00E9400054B015C0184
:1003800040E060E082EA91E00E949F046B017C0102
:1003900022E0B501A401CE0107960E94DF0F69E1BA
:1003A00071E0CE0101960E94930FBE01695F7F4FFD
:1003B000CE0101960E945010BC01CE0143960E94CE
:1003C000BF0FCE0101960E94250FCE0107960E9415
:1003D000250F22E0B701A601CE0107960E94DF0F8C
:1003E0006EE171E0CE0101960E94930FBE01695F3C
:1003F0007F4FCE0101960E945010BC01CE010D9698
:100400000E94BF0FCE0101960E94250FCE010796D4
:100410000E94250FBE016D5E7F4F8EE092E00E942C
:100420001F0A6CED75E080E090E00E94C205BE01FD
:10043000635F7F4F8EE092E00E941F0ACE010D960F
:100440000E94250FCE0143960E94250F68960FB695
:10045000F894DEBF0FBECDBFDF91CF91FF90EF903C
:10046000DF90CF90BF90AF909F908F90089561E004
:1004700082E00E949A0660E082E00C94D60661E079
:1004800082E00E949A0661E082E00C94D60661E068
:1004900083E00E949A0660E083E00C94D60661E057
:1004A00083E00E949A0661E083E00C94D60626E081
:1004B00046E164E082EA91E00E94210363E271E098
:1004C0008CE991E00E94930F6CE271E086E991E083
:1004D0000E94930F66E371E080E991E00E94930F20
:1004E0006FE371E08AE891E00E94930F69E471E0A4
:1004F00084E891E00C94930F84E891E00E94250F2A
:100500008AE891E00E94250F80E991E00E94250F82
:1005100086E991E00E94250F8CE991E00C94250F6B
:100520000F931F93CF93DF9300D000D000D0CDB7AF
:10053000DEB765E771E0CE0101960E94930F8EE071
:1005400092E00E941108892B09F46CC08EE092E0C1
:100550000E942B088C014AE050E0BC018DEB91E039
:100560000E94C40A0F3F8FEF180749F3602FCE0196
:1005700001960E943D1064E871E0CE0101960E9450
:100580009310882341F065E771E0CE0101960E9447
:10059000C80F0E94A7016CE971E0CE0101960E948C
:1005A0009310882341F065E771E0CE0101960E9427
:1005B000C80F0E94370266E971E0CE0101960E94E1
:1005C0009310882341F065E771E0CE0101960E9407
:1005D000C80F0E943F0260E971E0CE0101960E94BF
:1005E0009310882341F065E771E0CE0101960E94E7
:1005F000C80F0E9447026AE871E0CE0101960E948E
:100600009310882341F065E771E0CE0101960E94C6
:10061000C80F0E944F0264EF71E080E090E00E94FA
:10062000C2058DCFCE0101960E94250F26960FB6EA
:10063000F894DEBF0FBECDBFDF91CF911F910F9118
:100640000895DC0115966C93159716964C931697A2
:1006500070E0FB01E652FF4FE4911796EC93179779
:10066000FB01E850FF4F649118966C93189740E493
:100670005FE160E070E01D964D935D936D937C9318
:1006800050970895CF93DF93EC0162E08D810E9433
:100690009A0680E398EFAFEFBFEF89879A87AB8721
:1006A000BC87DF91CF9108958F929F92AF92BF92B6
:1006B000CF92DF92EF92FF920F931F93CF93DC01C3
:1006C0001796CC911797662311F08C2F01C080E00C
:1006D00018962C91189730E0220F331F2A5E3E4F58
:1006E00040E050E0BA01F90105911491F8019081C0
:1006F0009C23981315C06A017B019FEFC91AD90A80
:10070000E90AF90A1D968D909D90AD90BC90509786
:10071000481559056A057B0538F4B701A601E3CFF2
:10072000342F252FCB0104C030E020E080E090E0A2
:10073000632F722FCF911F910F91FF90EF90DF9059
:10074000CF90BF90AF909F908F9008958F929F927F
:10075000AF92BF92CF92DF92EF92FF920F931F93CF
:10076000CF93DF93CDB7DEB7C054D1400FB6F89426
:10077000DEBF0FBECDBF8C01F62E0E949105F11099
:1007800016C0F801C184D284E384F4849B01AC01D7
:100790002C193D094E095F0969017A0130EDC31634
:1007A00037E0D306E104F10410F48189B4C0F80104
:1007B00061877287838794871482138212821182E1
:1007C000108261E085810E94D6066AEF70E080E0C9
:1007D00090E00E94C20561E0F80185810E949A06BE
:1007E00060E0F80185810E94D60664E170E080E057
:1007F00090E00E94C205F89461E0F80185810E94B2
:10080000D60688E290E00E94FE0562E0F80185814C
:100810000E949A068AE090E00E94FE0560E0C8010E
:100820000E945403672B682B692B21F4F801118A6D
:10083000789442C061E0C8010E945403672B682B82
:10084000692BA1F39E012F5F3F4F79015E013FEBC2
:10085000A31A3EEFB30A670160E0C8010E94540387
:10086000F601608371838283938361E0C8010E94F3
:100870005403F6016483758386839783F8E0CF0E73
:10088000D11CCA14DB0441F7789420E030E0F70172
:10089000408151816281738184809580A680B78078
:1008A000411551056105710529F081149104A104D8
:1008B000B10421F4F801118A80E02DC0F90183E030
:1008C000F595E7958A95E1F7E00FF11F8081880F94
:1008D000481559056A057B0508F4816080832F5F00
:1008E0003F4FF8E0EF0EF11C2832310581F6F80198
:1008F000248130E04081818190E0840F911D42810C
:10090000840F911D4381840F911D99272817390762
:1009100089F681E0818BC05CDE4F0FB6F894DEBFB4
:100920000FBECDBFDF91CF911F910F91FF90EF9040
:10093000DF90CF90BF90AF909F908F900895CF920F
:10094000DF92EF92FF920F931F93CF93DF93EC010F
:10095000162F642F0E94A603882309F444C08E81B9
:100960008B3031F008F43FC08551823040F03BC0FD
:100970006A8170E080E090E00E94BF1125C00A818A
:10098000602F6F7770E080E090E00E94C11120E05E
:1009900030E040E853E40E944D126B017C018B81F2
:1009A000682F70E080E090E00E94C1119B01AC01D3
:1009B000C701B6010E9453112DEC3CEC4CEC5DE3F9
:1009C0000E944D1207FD9058112389F026E636E665
:1009D00046EE5FE30E944D1220E030E040E052E43A
:1009E0000E94531104C060E070E080EC9FE7DF914B
:1009F000CF911F910F91FF90EF90DF90CF900895CE
:100A0000CF92DF92EF92FF92CF93DF93EC0160E001
:100A10000E94A603882381F18E818B3031F160F131
:100A20008551823048F5688170E080E090E00E9456
:100A3000BF1120E030E040E853E40E944D126B010A
:100A40007C018981682F70E080E090E00E94C111F4
:100A50009B01AC01C701B6010E9453112DEC3CEC87
:100A60004CEC5DE30E944D120BC0688170E080E0A9
:100A700090E00E94BF1104C060E070E080EC9FE74E
:100A8000DF91CF91FF90EF90DF90CF9008951F926C
:100A90000F920FB60F9211242F933F938F939F9332
:100AA000AF93BF938091B5019091B601A091B7012A
:100AB000B091B8013091B40126E0230F2D3720F416
:100AC0000296A11DB11D05C029E8230F0396A11DA3
:100AD000B11D2093B4018093B5019093B601A0930A
:100AE000B701B093B8018091B9019091BA01A0917A
:100AF000BB01B091BC010196A11DB11D8093B9014C
:100B00009093BA01A093BB01B093BC01BF91AF9188
:100B10009F918F913F912F910F900FBE0F901F903B
:100B200018952FB7F8946091B5017091B601809136
:100B3000B7019091B8012FBF08953FB7F894809105
:100B4000B9019091BA01A091BB01B091BC0126B549
:100B5000A89B05C02F3F19F00196A11DB11D3FBFF5
:100B6000BA2FA92F982F8827820F911DA11DB11D83
:100B7000BC01CD0143E0660F771F881F991F4A957E
:100B8000D1F708958F929F92AF92BF92CF92DF924A
:100B9000EF92FF926B017C010E949D054B015C016D
:100BA000C114D104E104F10401F10E94B8100E94C3
:100BB0009D05DC01CB0188199909AA09BB09883E6A
:100BC0009340A105B10560F321E0C21AD108E10804
:100BD000F10888EE880E83E0981EA11CB11CC11498
:100BE000D104E104F10419F7DBCFFF90EF90DF901F
:100BF000CF90BF90AF909F908F90089583309105D4
:100C000028F0880F991F04970197F1F708957894B9
:100C100084B5826084BD84B5816084BD85B5826001
:100C200085BD85B5816085BDEEE6F0E0808181609F
:100C30008083E1E8F0E0108280818260808380819F
:100C400081608083E0E8F0E0808181608083E1E979
:100C5000F0E0808182608083808181608083E0E930
:100C6000F0E0808181608083E1ECF0E0808184604D
:100C70008083808182608083808181608083E3ECD7
:100C8000F0E0808181608083E0ECF0E08081826030
:100C90008083E2ECF0E0808181608083EAE7F0E02D
:100CA00080818460808380818260808380818E7F68
:100CB0008083808180688083089590E0FC01319773
:100CC000EF30F105B0F5EA5AFF4F0C94DC12809139
:100CD00080008F7703C0809180008F7D809380009B
:100CE000089580918000877FF9CF84B58F7702C007
:100CF00084B58F7D84BD0895809190008F7707C063
:100D0000809190008F7D03C080919000877F8093B9
:100D1000900008958091C0008F7703C08091C0003B
:100D20008F7D8093C00008958091C200877F80935B
:100D3000C2000895CF93DF9390E0FC01E652FF4F8D
:100D40002491FC01E850FF4F8491882361F190E0E9
:100D5000880F991FFC01EE5CFE4FC591D491FC01F8
:100D6000EC5DFE4FA591B491611109C09FB7F89455
:100D70008881209582238883EC912E230BC06230DA
:100D800061F49FB7F8943881822F809583238883FC
:100D9000EC912E2B2C939FBF06C08FB7F894E8815F
:100DA0002E2B28838FBFDF91CF9108951F93CF9370
:100DB000DF93282F30E0F901E653FF4F8491F901CA
:100DC000E652FF4FD491F901E850FF4FC491CC2374
:100DD000C9F0162F81110E945D06EC2FF0E0EE0F96
:100DE000FF1FEC5DFE4FA591B4918FB7F8941111E0
:100DF00005C09C91ED2FE095E92302C0EC91ED2B0D
:100E0000EC938FBFDF91CF911F910895CF93DF9324
:100E10001F92CDB7DEB76983DC01ED91FC910280B2
:100E2000F381E02D41E050E0BE016F5F7F4F0995F7
:100E30000F90DF91CF910895CF93DF93EC018C85D4
:100E40009D8597FF05C082E00E94EA0B9D878C87F5
:100E50008C859D85DF91CF91089583E00C947D0E64
:100E6000FC018485958597FD06C082E00E94940B65
:100E700090E00196089582E00E94940B90E008951E
:100E8000FC018485958597FD05C02FEF3FEF3587E1
:100E90002487089582E00C94EA0BCF93DF93EC0152
:100EA00080911101882331F083E00E941B0C1816F9
:100EB000190634F081E090E09B838A8380E090E023
:100EC000DF91CF910895FC0190819E5F908342E471
:100ED00050E060E471E080E80C94BC0CFC0181817E
:100EE0009081913A59F4813209F048C047E050E0CE
:100EF0006AE071E080E00E94BC0C76C09132F1F5AE
:100F0000833291F49381892F90E0982F8827228152
:100F1000822BA0E0B0E08093060190930701A0939C
:100F20000801B093090160C0803239F467E070E0D5
:100F30008AE091E00E94E30C06C0823209F054C0BE
:100F400082818093110180910D02882319F0EEEFC8
:100F5000FAE002C0E0E0F8E080910A0190910B0114
:100F6000A0910C01B0910D01803B9440A105B10509
:100F700039F48091110180FF1FC002C080E0089504
:100F80000FB6F894A8958091600088618093600006
:100F9000109260000FBEA895EE3F8AE0F80739F086
:100FA0008091FE0A9091FF0A918380831DC0109268
:100FB000FF0A1092FE0A18C0EE3F2AE0F20731F055
:100FC000808191819093FF0A8093FE0A87E797E7DB
:100FD000918380839BE088E10FB6F894A895809375
:100FE00060000FBE9093600081E008952FEF3FEF07
:100FF000FC01358724870895EDEBF1E0138212821E
:1010000088EE93E0A0E0B0E084839583A683B78365
:1010100087E591E0918380838FEF9FEF95878487A9
:101020000895FC01918D228D892F90E0805C9F4F67
:10103000821B91098F7399270895FC01918D828DF0
:10104000981731F0828DE80FF11D858D90E008959D
:101050008FEF9FEF0895FC01918D828D981761F0BD
:10106000828DDF01A80FB11D5D968C91928D9F5FDF
:101070009F73928F90E008958FEF9FEF08958FE810
:1010800099E0892B49F080E090E0892B29F00E94BB
:101090008F0981110C9400000895FC01848DDF01FB
:1010A000A80FB11DA35ABF4F2C91848D90E00196DB
:1010B0008F739927848FA689B7892C93A089B189CA
:1010C0008C9180648C93938D848D981306C00288D4
:1010D000F389E02D80818F7D80830895CF93DF9306
:1010E000EC01888D8823C9F0EA89FB89808185FD20
:1010F00005C0A889B9898C9186FD0FC00FB607FC81
:10110000F5CF808185FFF2CFA889B9898C9185FFC1
:10111000EDCFCE010E944D08E7CFDF91CF9108952A
:10112000EF92FF920F931F93CF93DF93EC0181E037
:10113000888F9B8D8C8D981305C0E889F9898081F3
:1011400085FD24C0F62E0B8D10E00F5F1F4F0F732F
:101150001127E02E8C8DE8120CC00FB607FCFACFD9
:10116000E889F989808185FFF5CFCE010E944D087D
:10117000F1CF8B8DFE01E80FF11DE35AFF4FF08296
:101180000B8FEA89FB898081806207C0EE89FF8925
:101190006083E889F98980818064808381E090E0C0
:1011A000DF91CF911F910F91FF90EF900895CF9213
:1011B000DF92EF92FF921F93CF93DF93EC016A01CE
:1011C0007B01122F60E874E88EE190E0A7019601A0
:1011D0000E94BA12DA01C9010197A109B109B695B5
:1011E000A79597958795AC01E889F98982E0808376
:1011F000411580E15807A8F0E889F989108260E478
:1012000072E48FE090E0A70196010E94BA12BA0141
:10121000A901415051096109710976956795579562
:101220004795EC85FD855083EE85FF854083188EBC
:10123000EC89FD891083EA89FB8980818061808344
:10124000EA89FB89808188608083EA89FB898081C3
:1012500080688083EA89FB8980818F7D8083DF912C
:10126000CF911F91FF90EF90DF90CF9008951F9244
:101270000F920FB60F9211242F938F939F93EF939A
:10128000FF93E0911E02F0911F028081E091240201
:10129000F091250282FD12C09081809127028F5F1C
:1012A0008F7320912802821751F0E0912702F0E01D
:1012B000E25FFD4F958F8093270201C08081FF91EF
:1012C000EF919F918F912F910F900FBE0F901F90D4
:1012D00018951F920F920FB60F9211242F933F93E0
:1012E0004F935F936F937F938F939F93AF93BF932E
:1012F000EF93FF938EE092E00E944D08FF91EF91F3
:10130000BF91AF919F918F917F916F915F914F911D
:101310003F912F910F900FBE0F901F9018958EE068
:1013200092E00E94110821E0892B09F420E0822F2D
:101330000895EEE0F2E01382128288EE93E0A0E0DE
:10134000B0E084839583A683B78387E691E0918399
:1013500080838DEC90E0958784878CEC90E0978774
:10136000868788EC90E0918B808B89EC90E0938B62
:10137000828B8AEC90E0958B848B8EEC90E0978B3F
:10138000868B118E128E138E148E0895CF92DF925B
:10139000EF92FF920F931F93CF93DF936C017A012B
:1013A0008B01C0E0D0E0CE15DF0589F0D8016D914A
:1013B0008D01D601ED91FC910190F081E02DC601E7
:1013C0000995892B11F47E0102C02196ECCFC7014B
:1013D000DF91CF911F910F91FF90EF90DF90CF9011
:1013E00008956115710579F0FB0101900020E9F77E
:1013F0003197AF01461B570BDC01ED91FC91028048
:10140000F381E02D099480E090E00895DC01ED91F6
:10141000FC91DB0114964D915C9115976D917C9137
:101420000280F381E02D0994DC01ED91FC910190A3
:10143000F081E02D099463E771E00C94F1090F93BA
:101440001F93CF93DF93EC010E94060A8C01CE011B
:101450000E941B0A800F911FDF91CF911F910F9166
:1014600008954F925F926F927F92EF92FF920F9347
:101470001F93CF93DF93CDB7DEB7A1970FB6F89444
:10148000DEBF0FBECDBF7C01FA01CB0119A2223015
:1014900008F42AE08E010F5D1F4F422E512C612C63
:1014A000712CBF01A30192010E94BA12F901CA0175
:1014B000015011096A3014F4605D01C0695CD80103
:1014C0006C93232B242B252B61F7B801C7010E94B5
:1014D000F109A1960FB6F894DEBF0FBECDBFDF9124
:1014E000CF911F910F91FF90EF907F906F905F9041
:1014F0004F900895CF92DF92EF92FF920F931F9338
:10150000CF93DF93EC016A017B012115310579F45A
:10151000E881F9810190F081E02D642FDF91CF9176
:101520001F910F91FF90EF90DF90CF9009942A3098
:101530003105E9F477FF1AC06DE20E94140A8C01AC
:1015400044275527BA014C195D096E097F092AE025
:10155000CE010E94310A800F911FDF91CF911F9120
:101560000F91FF90EF90DF90CF9008952AE0B701A0
:10157000A601CE01DF91CF911F910F91FF90EF90C7
:10158000DF90CF900C94310A0F931F93CF93DF938A
:10159000EC019A01AB01770F660B770B0E947A0A78
:1015A0008C01CE010E941B0A800F911FDF91CF9109
:1015B0001F910F910895615030F02091F100FC01CE
:1015C00020830196F8CF289884E68093B40208958A
:1015D0004091AF025091B0022091AD023091AE0225
:1015E00042175307B4F49091E8009570E1F390919D
:1015F000E80092FD19C08093F1008091AF029091B4
:10160000B00201968F739927892B19F48EEF80937E
:10161000E8008091AF029091B00201969093B002E1
:101620008093AF0281E0089580E00895CF92DF9229
:10163000EF92FF920F931F93CF93DF931F92CDB73B
:10164000DEB7182F062FE42E862F880F8E5F998322
:101650000E94E80A83E00E94E80AF12EC12E9981D7
:10166000D92E8C2D8F19801798F4F601E7FE02C051
:10167000849101C080810E94E80A182F80E00E94B6
:10168000E80A8123FFEFCF1ADF0A8111EACF01C0F8
:1016900081E00F90DF91CF911F910F91FF90EF901C
:1016A000DF90CF9008958091D70081608093D7001C
:1016B00080EA8093D80089B58F7E89BD89B5826024
:1016C00089BD09B400FEFDCF61E070E080E090E0EC
:1016D0000E94C2058091D8008F7C80618093D800E1
:1016E0008091E000807F8093E0000895CF93DF93A6
:1016F0001F92CDB7DEB71982CE0101960E94630713
:101700000E943E11BE016F5F7F4F0E94B910898118
:101710000F90DF91CF9108952FB7FC012083F894AB
:1017200067706093E9000895CF93DF931F92CDB760
:10173000DEB7682FCE0101960E948C0B8091F200DB
:1017400099819FBF0F90DF91CF910895EF92FF9203
:101750000F931F93CF93DF931F92CDB7DEB7909176
:10176000B302992311F057FF03C08FEF9FEF2AC0F8
:101770008A017B01682FCE0101960E948C0B80911B
:10178000F20090E0A801801791070CF4AC01842FBF
:10179000F70194E6815038F028989093B402209194
:1017A000F1002193F7CF4115510521F08091F2000E
:1017B000882321F089818FBFCA0104C08BE6809302
:1017C000E800F8CF0F90DF91CF911F910F91FF901C
:1017D000EF900895CF93DF931F92CDB7DEB741E02E
:1017E00050E0BE016F5F7F4F0E94A60B019719F476
:1017F000898190E002C08FEF9FEF0F90DF91CF9132
:101800000895CF93DF931F92CDB7DEB7682FCE0137
:1018100001960E948C0B9091E800892F807295FFB1
:1018200004C09091F2008FE3891B99819FBF0F90B4
:10183000DF91CF9108956F927F928F929F92AF9296
:10184000BF92CF92DF92EF92FF920F931F93CF93AD
:10185000DF931F92CDB7DEB7A82E6B01B42E052FF4
:101860008091B302811103C08FEF9FEF6AC0809116
:10187000B10280FF05C08091E00082608093E000AB
:10188000EB2CF02E8AEF982E8A2D8072782E9AE318
:10189000892E8A2D8074682EE114F10409F447C062
:1018A0008A2D0E94010C182F81110AC09A94992048
:1018B000D9F261E070E080E090E00E94C205ECCFD8
:1018C00090E0E816F9060CF41E2D6A2DCE01019663
:1018D0000E948C0B8091E80085FF26C0812F90E04C
:1018E000E81AF90A772029F01150A8F01092F100B7
:1018F000FBCFF601A7FE07C0115058F024912093AA
:10190000F1003196F9CF115020F021912093F10090
:10191000FACFC80ED91E8091E80085FF0FC0E114F0
:10192000F10411F461100AC089818FBFB5CF5D98B1
:1019300084E68093B5028B2D902F03C08092E8003F
:10194000F3CF0F90DF91CF911F910F91FF90EF9008
:10195000DF90CF90BF90AF909F908F907F906F90CF
:1019600008951092E9001092B0021092AF02909385
:10197000AE028093AD020895DF92EF92FF920F9333
:101980001F93CF93DF93D82E8A017B01E40EF51EBF
:10199000EB01CE15DF0571F0D7FE03C0FE01849187
:1019A00001C088810E94E80A21968111F2CF8FEF51
:1019B0009FEF01C0C801DF91CF911F910F91FF9060
:1019C000EF90DF900895BF92CF92DF92EF92FF9257
:1019D0000F931F93CF93DF936C018B01EB019BEF70
:1019E000B92E2097C1F07E01C134D1051CF080E4EE
:1019F000E82EF12C8091E80082FFFCCFC8018C1BFF
:101A00009D0B6E2D8C0D9D1D0E94DB0AB092E8008F
:101A1000CE19DF09E6CFC801DF91CF911F910F9159
:101A2000FF90EF90DF90CF90BF9008951F920F929C
:101A30000FB60F921124CF92DF92EF92FF920F9385
:101A40001F932F933F934F935F936F937F938F9346
:101A50009F93AF93BF93EF93FF93CF93DF93CDB754
:101A6000DEB76C97DEBFCDBF1092E9008091E80031
:101A700083FF24C168E0CE0145960E94DB0A82EF15
:101A80008093E8008D8987FF05C09091E80090FF62
:101A9000FCCF03C09EEF9093E800982F907609F05A
:101AA000F1C09E892F89188D91110CC0803829F4BE
:101AB0008091B2028093F10002C01092F100109266
:101AC000F100F5C0422F50E0512B913051F48111BB
:101AD000EEC04130510509F0EAC08091B2028D7F1D
:101AE0000BC0933061F48111E2C04130510509F01F
:101AF000DEC08091B20282608093B202D8C095307D
:101B000041F48091E80080FFFCCF20682093E3003F
:101B1000CEC0963009F08CC0EB8CFC8C123069F58D
:101B200080E090E00E94B10C0E94760B99E09E014B
:101B30002F5F3F4F6901F901292F11922A95E9F78B
:101B400099831A8391E09E8390EA98879AEF998708
:101B50002091AF023091B002275F3F4F3C832B832F
:101B60008D83C7010E94B10C49E050E0B60180E0CE
:101B70000E94BC0C0E94760B9AC0C7010E94B10C57
:101B80000E943E11BE016B5E7F4F0E94E2100097E3
:101B900019F00CF08CC08FC0113071F48B8D9C8DBE
:101BA000089719F481E08093AC028091AC02811116
:101BB0002FC064E971E031C0133009F07CC08F8917
:101BC000882349F1823029F440E865E184EB91E013
:101BD00006C0813039F440E86DE086EA91E00E9469
:101BE000160B63C0833009F066C00E943E118E015F
:101BF0000F5F1F4FB8010E940111F80101900020F2
:101C0000E9F73197BF01601B710B40E0C801E7CFD6
:101C100062E871E002C06AEC71E06115710509F4D7
:101C20004AC0FB01449150E080E80E94BC0C3FC0D8
:101C3000973009F440C0983021F481E08093F1009E
:101C400036C09930A1F58370B1F5E3E1F1E081E0B0
:101C500021E036E39081992361F08093E90020939D
:101C6000EB0091919093EC003093ED008F5F873003
:101C700089F78EE78093EA001092EA008F898093BB
:101C8000B30215C08B8D9C8D0E94B10C898D811182
:101C900005C0CE0145960E946E0707C00E943E1106
:101CA000BE016B5E7F4F0E942011882321F08EEFD2
:101CB0008093E80003C081E28093EB006C960FB63E
:101CC000F894DEBF0FBECDBFDF91CF91FF91EF91B2
:101CD000BF91AF919F918F917F916F915F914F9144
:101CE0003F912F911F910F91FF90EF90DF90CF9038
:101CF0000F900FBE0F901F9018958093E900809170
:101D0000F200882319F08AE38093E80008951F9277
:101D10000F920FB60F9211242F933F934F935F931F
:101D20006F937F938F939F93AF93BF93CF93EF93D3
:101D3000FF93C091E1008091E100837F8093E100F7
:101D4000C3FF0FC01092E90081E08093EB00109276
:101D5000EC0082E38093ED001092B30288E0809360
:101D6000F000C2FF19C083E00E947D0E8091B50291
:101D7000882339F08091B50281508093B502882381
:101D800089F18091B402882339F08091B4028150A6
:101D90008093B402882341F1C4FF10C08091E20017
:101DA0008E7E81608093E2008091E1008F7E80933F
:101DB000E1008091B1028E7E806111C0C0FF16C02B
:101DC0008091E2008E7E80618093E2008091E1004C
:101DD0008E7E8093E1008091B1028E7E816080933F
:101DE000B10204C05D9ACDCF289AD6CFFF91EF9172
:101DF000CF91BF91AF919F918F917F916F915F91A3
:101E00004F913F912F910F900FBE0F901F901895FB
:101E10001092B3021092B2021092B1020E94530BC0
:101E20008091E1008E7E8093E1008DE08093E2005E
:101E3000559A209AEEEFFFE7859194918B3F9C4D48
:101E400019F481E080930D020895FC018081918155
:101E50000C949713CF93DF93EC01888199810097BD
:101E600011F00E949713198218821D821C821B8216
:101E70001A82DF91CF9108950F931F93CF93DF9331
:101E8000EC018B016F5F7F4F888199810E942F1435
:101E9000009731F0998388831B830A8381E001C016
:101EA00080E0DF91CF911F910F910895CF93DF9341
:101EB000EC0188819981892B29F08A819B81861781
:101EC000970760F4CE010E943C0F882341F08C817B
:101ED0009D81892B19F4E881F981108281E0DF91DD
:101EE000CF910895EF92FF920F931F93CF93DF93BB
:101EF000EC017B018A01BA010E94560F811104C0D6
:101F0000CE010E942A0F07C01D830C83B701888170
:101F100099810E940B15CE01DF91CF911F910F91F6
:101F2000FF90EF900895FC011182108213821282BB
:101F3000158214826115710551F0FB01019000209A
:101F4000E9F73197AF01461B570B0C94720F0895B8
:101F5000CF93DF93EC01FB018617970761F0608157
:101F600071816115710529F0448155810E94720FBC
:101F700002C00E942A0FCE01DF91CF910895FC018B
:101F80001182108213821282158214820C94A80F7F
:101F9000CF93DF93EC016115710559F0FB010190BE
:101FA0000020E9F73197AF01461B570B0E94720FD3
:101FB00002C00E942A0FCE01DF91CF910895EF92C7
:101FC000FF920F931F93CF93DF93CDB7DEB7A19707
:101FD0000FB6F894DEBF0FBECDBF7C01CB01BA01B6
:101FE000F70111821082138212821582148242E05C
:101FF000420F8E010F5F1F4F0E94E212BC01C7010A
:102000000E94C80FA1960FB6F894DEBF0FBECDBFD9
:10201000DF91CF911F910F91FF90EF900895EF9274
:10202000FF920F931F93CF93DF93FC01248135819F
:102030006115710511F480E019C041155105A9F031
:102040007B01EC018A01020F131FB8010E94560F99
:10205000882389F3288139818C819D81B701820F82
:10206000931F0E940B151D830C8381E0DF91CF919C
:102070001F910F91FF90EF900895CF93DF9300D0C1
:10208000CDB7DEB769831A8241E050E0BE016F5FD1
:102090007F4F0E940F100F900F90DF91CF91089506
:1020A000CF93DF93EC01FB01448155816081718105
:1020B0000E940F10811103C0CE010E942A0FCE0191
:1020C000DF91CF910895CF93DF93DC01ED91FC91E7
:1020D000EB01A881B981309711F01097C9F41097DE
:1020E00059F0EB012C813D81232B31F08C9190E054
:1020F00091958195910914C0309781F0DC01149677
:102100008D919C911597892B49F0808190E008C0B2
:10211000BD01CF01DF91CF910C94021580E090E0DA
:10212000DF91CF910895FC0144815581FB01248109
:1021300035814217530729F40E94631021E0892B4F
:1021400009F020E0822F089508950E9407060E945A
:10215000A4108BEA92E00E94080F0E949201CFE344
:10216000D8E00E9490022097E1F30E943F08F9CF47
:102170000895EF92FF920F931F93CF93DF937B010C
:10218000FC01C281D38100E010E0209781F0E8815A
:10219000F9810280F381E02DB701CE01099597FD09
:1021A00008C0080F191F0884D985C02DEECFC801BB
:1021B00002C08FEF9FEFDF91CF911F910F91FF90A2
:1021C000EF9008950F931F93CF93DF938B01FC0142
:1021D000C281D381209771F0E881F9810480F58173
:1021E000E02DB801CE010995009731F40884D98516
:1021F000C02DF0CF80E090E0DF91CF911F910F9143
:1022000008950F931F93CF93DF938B01FC01C2813D
:10221000D381209771F0E881F9810680F781E02D64
:10222000B801CE010995080F111D0884D985C02D6C
:10223000F0CFF8011082DF91CF911F910F91089597
:102240000F931F93CF93DF938B01FC01C281D38146
:10225000209771F0E881F9810190F081E02DB801BB
:10226000CE010995811105C00884D985C02DF0CF14
:1022700080E0DF91CF911F910F9108958091BA0274
:1022800081110DC082E08093B60284E08093B70292
:102290001092B9021092B80281E08093BA0286EBE4
:1022A00092E008955058BB27AA270E946A110C9407
:1022B00013120E94051238F00E940C1220F039F41B
:1022C0009F3F19F426F40C9402120EF4E095E7FBFC
:1022D0000C94FC11E92F0E94241258F3BA176207DC
:1022E00073078407950720F079F4A6F50C9446123D
:1022F0000EF4E0950B2EBA2FA02D0B01B901900121
:102300000C01CA01A0011124FF27591B99F0593F64
:1023100050F4503E68F11A16F040A22F232F342FAC
:102320004427585FF3CF469537952795A795F040FA
:102330005395C9F77EF41F16BA0B620B730B840B0F
:10234000BAF09150A1F0FF0FBB1F661F771F881FC7
:10235000C2F70EC0BA0F621F731F841F48F487951F
:1023600077956795B795F7959E3F08F0B0CF939511
:10237000880F08F09927EE0F979587950895E894B0
:1023800009C097FB3EF490958095709561957F4FBD
:102390008F4F9F4F9923A9F0F92F96E9BB2793956B
:1023A000F695879577956795B795F111F8CFFAF47B
:1023B000BB0F11F460FF1BC06F5F7F4F8F4F9F4FAC
:1023C00016C0882311F096E911C0772321F09EE80A
:1023D000872F762F05C0662371F096E8862F70E070
:1023E00060E02AF09A95660F771F881FDAF7880F4A
:1023F0009695879597F9089597F99F6780E870E01B
:1024000060E008959FEF80EC089500240A9416166A
:10241000170618060906089500240A9412161306D2
:10242000140605060895092E0394000C11F4882360
:1024300052F0BB0F40F4BF2B11F460FF04C06F5F7C
:102440007F4F8F4F9F4F089557FD9058440F551F52
:1024500059F05F3F71F04795880F97FB991F61F026
:102460009F3F79F087950895121613061406551F9D
:10247000F2CF4695F1DF08C0161617061806991F09
:10248000F1CF86957105610508940895E894BB27FE
:1024900066277727CB0197F908950E9460120C9464
:1024A00013120E94051238F00E940C1220F095239E
:1024B00011F00C94FC110C94021211240C9447128C
:1024C0000E94241270F3959FC1F3950F50E0551FA1
:1024D000629FF001729FBB27F00DB11D639FAA2779
:1024E000F00DB11DAA1F649F6627B00DA11D661FC8
:1024F000829F2227B00DA11D621F739FB00DA11DE9
:10250000621F839FA00D611D221F749F3327A00DA2
:10251000611D231F849F600D211D822F762F6A2F3E
:1025200011249F5750409AF0F1F088234AF0EE0FA3
:10253000FF1FBB1F661F771F881F91505040A9F7D0
:102540009E3F510580F00C94FC110C9447125F3FA4
:10255000E4F3983ED4F3869577956795B795F7950C
:10256000E7959F5FC1F7FE2B880F911D9695879584
:1025700097F90895A1E21A2EAA1BBB1BFD010DC0FD
:10258000AA1FBB1FEE1FFF1FA217B307E407F50723
:1025900020F0A21BB30BE40BF50B661F771F881FFF
:1025A000991F1A9469F760957095809590959B0195
:1025B000AC01BD01CF010895EE0FFF1F0590F4910E
:1025C000E02D0994EF920F931F93CF93DF93E801CF
:1025D00047FD02C034E001C034E1E42F440FFF0B9B
:1025E000F7FF03C0F195E195F109E32E022F2E2F9D
:1025F000AE010E941215CE01DF91CF911F910F9174
:10260000EF900895CF93DF938230910510F482E02C
:1026100090E0E091C402F091C50220E030E0C0E01B
:10262000D0E0309711F14081518148175907C0F02F
:102630004817590761F482819381209719F09B8391
:102640008A832BC09093C5028093C40226C02115B3
:10265000310519F04217530718F49A01BE01DF0142
:10266000EF010280F381E02DDCCF2115310509F166
:10267000281B390B2430310590F412968D919C91D2
:1026800013976115710521F0FB019383828304C0C8
:102690009093C5028093C402FD01329644C0FD01AF
:1026A000E20FF31F81939193225031092D933C93B4
:1026B0003AC02091C2023091C302232B41F42091F1
:1026C0000201309103013093C3022093C202209192
:1026D0000001309101012115310541F42DB73EB7BC
:1026E0004091040150910501241B350BE091C20279
:1026F000F091C302E217F307A0F42E1B3F0B28173B
:10270000390778F0AC014E5F5F4F2417350748F06A
:102710004E0F5F1F5093C3024093C2028193919367
:1027200002C0E0E0F0E0CF01DF91CF9108950F9378
:102730001F93CF93DF93009709F48CC0FC0132976D
:10274000138212820091C4021091C5020115110575
:1027500081F420813181820F931F2091C202309138
:10276000C3022817390779F5F093C302E093C20238
:1027700071C0D80140E050E0AE17BF0750F4129688
:102780002D913C911397AD012115310509F1D90126
:10279000F3CF9D01DA013383228360817181860F3B
:1027A000971F8217930769F4EC0128813981260F5E
:1027B000371F2E5F3F4F318320838A819B81938314
:1027C0008283452B29F4F093C502E093C40242C0F2
:1027D0001396FC93EE931297ED01499159919E0146
:1027E000240F351FE217F30771F480819181840F64
:1027F000951F029611969C938E93828193811396D6
:102800009C938E931297E0E0F0E0D80112968D91A0
:102810009C911397009719F0F8018C01F6CF8D91D8
:102820009C9198012E5F3F4F820F931F2091C2020F
:102830003091C3022817390769F4309729F41092B0
:10284000C5021092C40202C0138212821093C30206
:102850000093C202DF91CF911F910F910895A0E0E4
:10286000B0E0E5E3F4E10C947C17EC01009721F46F
:10287000CB010E940213B8C0FC01E60FF71F9C01B8
:1028800022503109E217F30708F4ACC0D9010D91C9
:102890001C91119706171707B0F00530110508F4C1
:1028A0009FC0C80104978617970708F499C0025083
:1028B0001109061B170B019311936D937C93CF01A4
:1028C0000E9497138DC05B01A01AB10A4C01800EC3
:1028D000911EA091C402B091C50240E050E0E12CED
:1028E000F12C109709F44AC0A815B905D1F56D90DF
:1028F0007C901197630182E0C80ED11CCA14DB04DE
:1029000080F1A3014A195B096A0182E0C80ED11C5B
:102910001296BC9012971396AC91B5E0CB16D104E9
:1029200040F0B282A38351834083D9016D937C939D
:102930000AC00E5F1F4FC301800F911FF9019183E1
:102940008083EB2DFA2FE114F10431F0D7011396B7
:10295000FC93EE93129744C0F093C502E093C40237
:102960003FC08D919C9111974817590708F4AC010D
:102970007D0112960D90BC91A02DB3CF8091C20223
:102980009091C30288159905E1F446175707C8F4DA
:102990008091000190910101009741F48DB79EB79D
:1029A0004091040150910501841B950BE817F9072C
:1029B000C8F4F093C302E093C202F901718360830B
:1029C0000FC0CB010E9402137C01009759F0A801AF
:1029D000BE010E94F914CE010E949713C70104C0E2
:1029E000CE0102C080E090E0CDB7DEB7EEE00C94FF
:1029F0009817FB01DC0102C001900D92415050403C
:102A0000D8F70895FB01DC018D9101908019011028
:102A1000D9F3990B0895FB01DC0101900D92002080
:102A2000E1F708954F925F926F927F929F92AF92DB
:102A3000BF92CF92DF92EF92FF920F931F93CF93AB
:102A4000DF93CDB7DEB729970FB6F894DEBF0FBE80
:102A5000CDBF6A01122FB02E2BE3201720F0FF24E8
:102A6000F394F00E02C0BCE3FB2E0F2D27E0AE0165
:102A70004F5F5F4F0E94A016AC018981982F99701B
:102A8000913031F0E1FC06C0E0FE06C090E205C0E6
:102A90009DE203C09BE201C090E0EE2DE07183FF58
:102AA0003CC0911102C083E001C084E0811718F49A
:102AB000212F281B01C020E0E1110BC0F601822F5D
:102AC00030E2882319F031938150FBCFC20ED11C24
:102AD00020E0992329F0D6019C93F60131966F01ED
:102AE000C6010396E2FE0AC03EE4D6013C9341E4EF
:102AF00011964C93119712963C9306C03EE6F60150
:102B0000308341E641833283FC01322F40E233239C
:102B100009F442C041933150FACF82FF44C0911171
:102B200002C083E001C084E0811718F4212F281B24
:102B300001C020E0E1110BC0F601822F30E28823B2
:102B400019F031938150FBCFC20ED11C20E09923A4
:102B500029F0D6019C93F60131966F01C6010396C8
:102B6000E2FE0BC039E4D6013C933EE411963C935F
:102B7000119736E412963C9307C039E6F60130838C
:102B80003EE6318336E63283FC01322F40E23323C6
:102B900019F041933150FBCFFC01E20FF11D10827F
:102BA0008EEF9FEFB7C0F1E0911101C0F0E06F2F01
:102BB00070E01416150624F49A012F5F3F4F02C0EF
:102BC00021E030E0260F371FBB2029F06B2D70E08D
:102BD0006F5F7F4F02C060E070E0260F371F612FEC
:102BE00070E0261737071CF4121B212F01C020E0CC
:102BF0003E2D387159F4D601322F60E2332319F09B
:102C00006D933150FBCFC20ED11C20E0FF2331F079
:102C1000D6019C93B6016F5F7F4F6B01E1110BC032
:102C2000F601922F30E3992319F031939150FBCFA5
:102C3000C20ED11C20E09F2D940F3A81782F707125
:102C4000A72E84FF03C0313309F49150191624F4E0
:102C5000993018F098E001C091E0E42F852F57FFDC
:102C600002C0E0E080E06E2F782FE0E0F0E0AEE21E
:102C70009A2E3A01691A71082A01461A570A0B2D31
:102C800010E01195019511096F3F8FEF780729F436
:102C9000D6019C92C60101966C014617570784F035
:102CA000661677066CF47F01E40CF51CA1E0B0E039
:102CB000AC0FBD1FEA0EFB1ED7011196BC9002C0DF
:102CC00090E3B92E615071093196C60101967C01DD
:102CD0006017710724F0D601BC926C01D5CF641740
:102CE000750741F4363320F4353321F4A11002C0C6
:102CF00081E3B82EF601B082F701822F90E288239B
:102D000019F091938150FBCFF701E20FF11D108272
:102D100080E090E029960FB6F894DEBF0FBECDBFDD
:102D2000DF91CF911F910F91FF90EF90DF90CF90A7
:102D3000BF90AF909F907F906F905F904F9008955D
:102D4000283008F027E03327DA01990F311D87FD7D
:102D5000916000966105710539F432602E5F3D93F4
:102D600030E32A95E1F708959F3F30F080387105F0
:102D7000610509F03C5F3C5F3D93913008F080684D
:102D8000911DDF93CF931F930F93FF92EF92192F13
:102D9000987F9695E92F96959695E90FFF27E85D20
:102DA000FD4F99273327EE24FF24A701E701059063
:102DB0000894079428F4360FE71EF81E491F511D8A
:102DC000660F771F881F991F0694A1F70590079437
:102DD00028F4E70EF81E491F561FC11D770F881FE4
:102DE000991F661F0694A1F70590079428F4F80E22
:102DF000491F561FC71FD11D880F991F661F771FB8
:102E00000694A1F70590079420F4490F561FC71F99
:102E1000D81F990F661F771F881F0694A9F7849102
:102E20001095177041F0D695C79557954795F7942B
:102E3000E7941A95C1F7EEECF1E0689415901591BE
:102E400035916591959105907FE27395E118F10AAE
:102E5000430B560BC90BD009C0F7E10CF11E431F01
:102E6000561FC91FD01D7EF4703311F48A95E6CF2A
:102E7000E894015030F0080F0AF40027021708F414
:102E8000202F2395022F7A3328F079E37D932A951A
:102E9000E9F710C07D932A9589F606949795679572
:102EA000379517951794E118F10A430B560BC90B88
:102EB000D00998F023957E9173957A3308F070E3EA
:102EC0007C932013B8F77E9170617D9330F08395E9
:102ED00071E37D9370E32A95E1F71124EF90FF9061
:102EE0000F911F91CF91DF91992787FD90950895BC
:102EF0002F923F924F925F926F927F928F929F920A
:102F0000AF92BF92CF92DF92EF92FF920F931F93F7
:102F1000CF93DF93CDB7DEB7CA1BDB0B0FB6F894A8
:102F2000DEBF0FBECDBF09942A88398848885F84E8
:102F30006E847D848C849B84AA84B984C884DF8059
:102F4000EE80FD800C811B81AA81B981CE0FD11D3D
:102F50000FB6F894DEBF0FBECDBFED01089511E0AE
:102F6000C7E6D1E004C0FE010E94DC122196C836FB
:082F7000D107C9F7F894FFCF67
:102F78000000C6028000FFFFFFFF00E10000000024
:102F8800000000C180810000003F68683D003F7478
:102F9800743D006C69676874316F6E006C696768AE
:102FA80074316F6666006C69676874326F6E006CA6
:102FB80069676874326F66660067657473656E73F7
:102FC8006F72000000000006074D07300740071C1D
:102FD800072D07000000009008C60911082B081DDE
:102FE800086E080D0A006E616E00696E66006F76E5
:042FF80066002E0041
:00000001FF
